{
  "contractName": "NftMarket",
  "abi": [
    {
      "inputs": [],
      "stateMutability": "nonpayable",
      "type": "constructor"
    },
    {
      "anonymous": false,
      "inputs": [
        {
          "indexed": true,
          "internalType": "address",
          "name": "owner",
          "type": "address"
        },
        {
          "indexed": true,
          "internalType": "address",
          "name": "approved",
          "type": "address"
        },
        {
          "indexed": true,
          "internalType": "uint256",
          "name": "tokenId",
          "type": "uint256"
        }
      ],
      "name": "Approval",
      "type": "event"
    },
    {
      "anonymous": false,
      "inputs": [
        {
          "indexed": true,
          "internalType": "address",
          "name": "owner",
          "type": "address"
        },
        {
          "indexed": true,
          "internalType": "address",
          "name": "operator",
          "type": "address"
        },
        {
          "indexed": false,
          "internalType": "bool",
          "name": "approved",
          "type": "bool"
        }
      ],
      "name": "ApprovalForAll",
      "type": "event"
    },
    {
      "anonymous": false,
      "inputs": [
        {
          "indexed": false,
          "internalType": "uint256",
          "name": "tokenId",
          "type": "uint256"
        },
        {
          "indexed": false,
          "internalType": "uint256",
          "name": "price",
          "type": "uint256"
        },
        {
          "indexed": false,
          "internalType": "address",
          "name": "creator",
          "type": "address"
        },
        {
          "indexed": false,
          "internalType": "bool",
          "name": "isListed",
          "type": "bool"
        }
      ],
      "name": "NftItemCreated",
      "type": "event"
    },
    {
      "anonymous": false,
      "inputs": [
        {
          "indexed": true,
          "internalType": "address",
          "name": "previousOwner",
          "type": "address"
        },
        {
          "indexed": true,
          "internalType": "address",
          "name": "newOwner",
          "type": "address"
        }
      ],
      "name": "OwnershipTransferred",
      "type": "event"
    },
    {
      "anonymous": false,
      "inputs": [
        {
          "indexed": true,
          "internalType": "address",
          "name": "from",
          "type": "address"
        },
        {
          "indexed": true,
          "internalType": "address",
          "name": "to",
          "type": "address"
        },
        {
          "indexed": true,
          "internalType": "uint256",
          "name": "tokenId",
          "type": "uint256"
        }
      ],
      "name": "Transfer",
      "type": "event"
    },
    {
      "inputs": [
        {
          "internalType": "address",
          "name": "to",
          "type": "address"
        },
        {
          "internalType": "uint256",
          "name": "tokenId",
          "type": "uint256"
        }
      ],
      "name": "approve",
      "outputs": [],
      "stateMutability": "nonpayable",
      "type": "function"
    },
    {
      "inputs": [
        {
          "internalType": "address",
          "name": "owner",
          "type": "address"
        }
      ],
      "name": "balanceOf",
      "outputs": [
        {
          "internalType": "uint256",
          "name": "",
          "type": "uint256"
        }
      ],
      "stateMutability": "view",
      "type": "function",
      "constant": true
    },
    {
      "inputs": [
        {
          "internalType": "uint256",
          "name": "tokenId",
          "type": "uint256"
        }
      ],
      "name": "getApproved",
      "outputs": [
        {
          "internalType": "address",
          "name": "",
          "type": "address"
        }
      ],
      "stateMutability": "view",
      "type": "function",
      "constant": true
    },
    {
      "inputs": [
        {
          "internalType": "address",
          "name": "owner",
          "type": "address"
        },
        {
          "internalType": "address",
          "name": "operator",
          "type": "address"
        }
      ],
      "name": "isApprovedForAll",
      "outputs": [
        {
          "internalType": "bool",
          "name": "",
          "type": "bool"
        }
      ],
      "stateMutability": "view",
      "type": "function",
      "constant": true
    },
    {
      "inputs": [],
      "name": "listingPrice",
      "outputs": [
        {
          "internalType": "uint256",
          "name": "",
          "type": "uint256"
        }
      ],
      "stateMutability": "view",
      "type": "function",
      "constant": true
    },
    {
      "inputs": [],
      "name": "name",
      "outputs": [
        {
          "internalType": "string",
          "name": "",
          "type": "string"
        }
      ],
      "stateMutability": "view",
      "type": "function",
      "constant": true
    },
    {
      "inputs": [],
      "name": "owner",
      "outputs": [
        {
          "internalType": "address",
          "name": "",
          "type": "address"
        }
      ],
      "stateMutability": "view",
      "type": "function",
      "constant": true
    },
    {
      "inputs": [
        {
          "internalType": "uint256",
          "name": "tokenId",
          "type": "uint256"
        }
      ],
      "name": "ownerOf",
      "outputs": [
        {
          "internalType": "address",
          "name": "",
          "type": "address"
        }
      ],
      "stateMutability": "view",
      "type": "function",
      "constant": true
    },
    {
      "inputs": [],
      "name": "renounceOwnership",
      "outputs": [],
      "stateMutability": "nonpayable",
      "type": "function"
    },
    {
      "inputs": [
        {
          "internalType": "address",
          "name": "from",
          "type": "address"
        },
        {
          "internalType": "address",
          "name": "to",
          "type": "address"
        },
        {
          "internalType": "uint256",
          "name": "tokenId",
          "type": "uint256"
        }
      ],
      "name": "safeTransferFrom",
      "outputs": [],
      "stateMutability": "nonpayable",
      "type": "function"
    },
    {
      "inputs": [
        {
          "internalType": "address",
          "name": "from",
          "type": "address"
        },
        {
          "internalType": "address",
          "name": "to",
          "type": "address"
        },
        {
          "internalType": "uint256",
          "name": "tokenId",
          "type": "uint256"
        },
        {
          "internalType": "bytes",
          "name": "_data",
          "type": "bytes"
        }
      ],
      "name": "safeTransferFrom",
      "outputs": [],
      "stateMutability": "nonpayable",
      "type": "function"
    },
    {
      "inputs": [
        {
          "internalType": "address",
          "name": "operator",
          "type": "address"
        },
        {
          "internalType": "bool",
          "name": "approved",
          "type": "bool"
        }
      ],
      "name": "setApprovalForAll",
      "outputs": [],
      "stateMutability": "nonpayable",
      "type": "function"
    },
    {
      "inputs": [
        {
          "internalType": "bytes4",
          "name": "interfaceId",
          "type": "bytes4"
        }
      ],
      "name": "supportsInterface",
      "outputs": [
        {
          "internalType": "bool",
          "name": "",
          "type": "bool"
        }
      ],
      "stateMutability": "view",
      "type": "function",
      "constant": true
    },
    {
      "inputs": [],
      "name": "symbol",
      "outputs": [
        {
          "internalType": "string",
          "name": "",
          "type": "string"
        }
      ],
      "stateMutability": "view",
      "type": "function",
      "constant": true
    },
    {
      "inputs": [
        {
          "internalType": "uint256",
          "name": "tokenId",
          "type": "uint256"
        }
      ],
      "name": "tokenURI",
      "outputs": [
        {
          "internalType": "string",
          "name": "",
          "type": "string"
        }
      ],
      "stateMutability": "view",
      "type": "function",
      "constant": true
    },
    {
      "inputs": [
        {
          "internalType": "address",
          "name": "from",
          "type": "address"
        },
        {
          "internalType": "address",
          "name": "to",
          "type": "address"
        },
        {
          "internalType": "uint256",
          "name": "tokenId",
          "type": "uint256"
        }
      ],
      "name": "transferFrom",
      "outputs": [],
      "stateMutability": "nonpayable",
      "type": "function"
    },
    {
      "inputs": [
        {
          "internalType": "address",
          "name": "newOwner",
          "type": "address"
        }
      ],
      "name": "transferOwnership",
      "outputs": [],
      "stateMutability": "nonpayable",
      "type": "function"
    },
    {
      "inputs": [
        {
          "internalType": "uint256",
          "name": "tokenId",
          "type": "uint256"
        }
      ],
      "name": "burnToken",
      "outputs": [],
      "stateMutability": "nonpayable",
      "type": "function"
    },
    {
      "inputs": [
        {
          "internalType": "string",
          "name": "tokenURI",
          "type": "string"
        },
        {
          "internalType": "uint256",
          "name": "price",
          "type": "uint256"
        }
      ],
      "name": "mintToken",
      "outputs": [
        {
          "internalType": "uint256",
          "name": "",
          "type": "uint256"
        }
      ],
      "stateMutability": "payable",
      "type": "function",
      "payable": true
    },
    {
      "inputs": [
        {
          "internalType": "uint256",
          "name": "newPrice",
          "type": "uint256"
        }
      ],
      "name": "setListingPrice",
      "outputs": [],
      "stateMutability": "nonpayable",
      "type": "function"
    },
    {
      "inputs": [
        {
          "internalType": "uint256",
          "name": "tokenId",
          "type": "uint256"
        }
      ],
      "name": "getNftItem",
      "outputs": [
        {
          "components": [
            {
              "internalType": "uint256",
              "name": "tokenId",
              "type": "uint256"
            },
            {
              "internalType": "uint256",
              "name": "price",
              "type": "uint256"
            },
            {
              "internalType": "address",
              "name": "creator",
              "type": "address"
            },
            {
              "internalType": "bool",
              "name": "isListed",
              "type": "bool"
            }
          ],
          "internalType": "struct NftMarket.NftItem",
          "name": "",
          "type": "tuple"
        }
      ],
      "stateMutability": "view",
      "type": "function",
      "constant": true
    },
    {
      "inputs": [],
      "name": "listedItemsCount",
      "outputs": [
        {
          "internalType": "uint256",
          "name": "",
          "type": "uint256"
        }
      ],
      "stateMutability": "view",
      "type": "function",
      "constant": true
    },
    {
      "inputs": [
        {
          "internalType": "string",
          "name": "tokenURI",
          "type": "string"
        }
      ],
      "name": "tokenURIExists",
      "outputs": [
        {
          "internalType": "bool",
          "name": "",
          "type": "bool"
        }
      ],
      "stateMutability": "view",
      "type": "function",
      "constant": true
    },
    {
      "inputs": [],
      "name": "totalSupply",
      "outputs": [
        {
          "internalType": "uint256",
          "name": "",
          "type": "uint256"
        }
      ],
      "stateMutability": "view",
      "type": "function",
      "constant": true
    },
    {
      "inputs": [
        {
          "internalType": "uint256",
          "name": "index",
          "type": "uint256"
        }
      ],
      "name": "tokenByIndex",
      "outputs": [
        {
          "internalType": "uint256",
          "name": "",
          "type": "uint256"
        }
      ],
      "stateMutability": "view",
      "type": "function",
      "constant": true
    },
    {
      "inputs": [
        {
          "internalType": "address",
          "name": "owner",
          "type": "address"
        },
        {
          "internalType": "uint256",
          "name": "index",
          "type": "uint256"
        }
      ],
      "name": "tokenOfOwnerByIndex",
      "outputs": [
        {
          "internalType": "uint256",
          "name": "",
          "type": "uint256"
        }
      ],
      "stateMutability": "view",
      "type": "function",
      "constant": true
    },
    {
      "inputs": [],
      "name": "getAllNftsOnSale",
      "outputs": [
        {
          "components": [
            {
              "internalType": "uint256",
              "name": "tokenId",
              "type": "uint256"
            },
            {
              "internalType": "uint256",
              "name": "price",
              "type": "uint256"
            },
            {
              "internalType": "address",
              "name": "creator",
              "type": "address"
            },
            {
              "internalType": "bool",
              "name": "isListed",
              "type": "bool"
            }
          ],
          "internalType": "struct NftMarket.NftItem[]",
          "name": "",
          "type": "tuple[]"
        }
      ],
      "stateMutability": "view",
      "type": "function",
      "constant": true
    },
    {
      "inputs": [],
      "name": "getOwnedNfts",
      "outputs": [
        {
          "components": [
            {
              "internalType": "uint256",
              "name": "tokenId",
              "type": "uint256"
            },
            {
              "internalType": "uint256",
              "name": "price",
              "type": "uint256"
            },
            {
              "internalType": "address",
              "name": "creator",
              "type": "address"
            },
            {
              "internalType": "bool",
              "name": "isListed",
              "type": "bool"
            }
          ],
          "internalType": "struct NftMarket.NftItem[]",
          "name": "",
          "type": "tuple[]"
        }
      ],
      "stateMutability": "view",
      "type": "function",
      "constant": true
    },
    {
      "inputs": [
        {
          "internalType": "uint256",
          "name": "tokenId",
          "type": "uint256"
        }
      ],
      "name": "buyNft",
      "outputs": [],
      "stateMutability": "payable",
      "type": "function",
      "payable": true
    },
    {
      "inputs": [
        {
          "internalType": "uint256",
          "name": "tokenId",
          "type": "uint256"
        },
        {
          "internalType": "uint256",
          "name": "newPrice",
          "type": "uint256"
        }
      ],
      "name": "placeNftOnSale",
      "outputs": [],
      "stateMutability": "payable",
      "type": "function",
      "payable": true
    }
  ],
  "bytecode": "0x60806040526658d15e176280006010553480156200001c57600080fd5b506040518060400160405280600c81526020017f4372656174757265734e465400000000000000000000000000000000000000008152506040518060400160405280600481526020017f434e4654000000000000000000000000000000000000000000000000000000008152508160009080519060200190620000a1929190620001b1565b508060019080519060200190620000ba929190620001b1565b505050620000dd620000d1620000e360201b60201c565b620000eb60201b60201c565b620002c5565b600033905090565b6000600760009054906101000a900473ffffffffffffffffffffffffffffffffffffffff16905081600760006101000a81548173ffffffffffffffffffffffffffffffffffffffff021916908373ffffffffffffffffffffffffffffffffffffffff1602179055508173ffffffffffffffffffffffffffffffffffffffff168173ffffffffffffffffffffffffffffffffffffffff167f8be0079c531659141344cd1fd0a4f28419497f9722a3daafe3b4186f6b6457e060405160405180910390a35050565b828054620001bf9062000290565b90600052602060002090601f016020900481019282620001e357600085556200022f565b82601f10620001fe57805160ff19168380011785556200022f565b828001600101855582156200022f579182015b828111156200022e57825182559160200191906001019062000211565b5b5090506200023e919062000242565b5090565b5b808211156200025d57600081600090555060010162000243565b5090565b7f4e487b7100000000000000000000000000000000000000000000000000000000600052602260045260246000fd5b60006002820490506001821680620002a957607f821691505b602082108103620002bf57620002be62000261565b5b50919050565b614dc780620002d56000396000f3fe6080604052600436106101cd5760003560e01c806370a08231116100f7578063a22cb46511610095578063c87b56dd11610064578063c87b56dd14610685578063ccb4918d146106c2578063e985e9c5146106ed578063f2fde38b1461072a576101cd565b8063a22cb465146105d8578063b88d4fde14610601578063c046372c1461062a578063c78f19f91461065a576101cd565b80637b47ec1a116100d15780637b47ec1a146105305780637c726b69146105595780638da5cb5b1461058257806395d89b41146105ad576101cd565b806370a08231146104b157806370cbcb43146104ee578063715018a614610519576101cd565b8063243adbdd1161016f57806343d32ae71161013e57806343d32ae7146103bd5780634f6ccce7146103fa5780636352211e146104375780636f1a0af514610474576101cd565b8063243adbdd146103105780632f745c591461032c57806336b536be1461036957806342842e0e14610394576101cd565b8063095ea7b3116101ab578063095ea7b31461027757806318160ddd146102a057806321f422e5146102cb57806323b872dd146102e7576101cd565b806301ffc9a7146101d257806306fdde031461020f578063081812fc1461023a575b600080fd5b3480156101de57600080fd5b506101f960048036038101906101f49190613220565b610753565b6040516102069190613268565b60405180910390f35b34801561021b57600080fd5b50610224610835565b604051610231919061331c565b60405180910390f35b34801561024657600080fd5b50610261600480360381019061025c9190613374565b6108c7565b60405161026e91906133e2565b60405180910390f35b34801561028357600080fd5b5061029e60048036038101906102999190613429565b61094c565b005b3480156102ac57600080fd5b506102b5610a63565b6040516102c29190613478565b60405180910390f35b6102e560048036038101906102e09190613493565b610a70565b005b3480156102f357600080fd5b5061030e600480360381019061030991906134d3565b610bec565b005b61032a60048036038101906103259190613374565b610c4c565b005b34801561033857600080fd5b50610353600480360381019061034e9190613429565b610e1a565b6040516103609190613478565b60405180910390f35b34801561037557600080fd5b5061037e610ebf565b60405161038b9190613657565b60405180910390f35b3480156103a057600080fd5b506103bb60048036038101906103b691906134d3565b611059565b005b3480156103c957600080fd5b506103e460048036038101906103df91906137ae565b611079565b6040516103f19190613268565b60405180910390f35b34801561040657600080fd5b50610421600480360381019061041c9190613374565b6110b5565b60405161042e9190613478565b60405180910390f35b34801561044357600080fd5b5061045e60048036038101906104599190613374565b611126565b60405161046b91906133e2565b60405180910390f35b34801561048057600080fd5b5061049b60048036038101906104969190613374565b6111d7565b6040516104a8919061384c565b60405180910390f35b3480156104bd57600080fd5b506104d860048036038101906104d39190613867565b611289565b6040516104e59190613478565b60405180910390f35b3480156104fa57600080fd5b50610503611340565b6040516105109190613657565b60405180910390f35b34801561052557600080fd5b5061052e6114a4565b005b34801561053c57600080fd5b5061055760048036038101906105529190613374565b61152c565b005b34801561056557600080fd5b50610580600480360381019061057b9190613374565b611538565b005b34801561058e57600080fd5b50610597611601565b6040516105a491906133e2565b60405180910390f35b3480156105b957600080fd5b506105c261162b565b6040516105cf919061331c565b60405180910390f35b3480156105e457600080fd5b506105ff60048036038101906105fa91906138c0565b6116bd565b005b34801561060d57600080fd5b50610628600480360381019061062391906139a1565b6116d3565b005b610644600480360381019061063f9190613a24565b611735565b6040516106519190613478565b60405180910390f35b34801561066657600080fd5b5061066f611845565b60405161067c9190613478565b60405180910390f35b34801561069157600080fd5b506106ac60048036038101906106a79190613374565b61184b565b6040516106b9919061331c565b60405180910390f35b3480156106ce57600080fd5b506106d761199c565b6040516106e49190613478565b60405180910390f35b3480156106f957600080fd5b50610714600480360381019061070f9190613a80565b6119ad565b6040516107219190613268565b60405180910390f35b34801561073657600080fd5b50610751600480360381019061074c9190613867565b611a41565b005b60007f80ac58cd000000000000000000000000000000000000000000000000000000007bffffffffffffffffffffffffffffffffffffffffffffffffffffffff1916827bffffffffffffffffffffffffffffffffffffffffffffffffffffffff1916148061081e57507f5b5e139f000000000000000000000000000000000000000000000000000000007bffffffffffffffffffffffffffffffffffffffffffffffffffffffff1916827bffffffffffffffffffffffffffffffffffffffffffffffffffffffff1916145b8061082e575061082d82611b38565b5b9050919050565b60606000805461084490613aef565b80601f016020809104026020016040519081016040528092919081815260200182805461087090613aef565b80156108bd5780601f10610892576101008083540402835291602001916108bd565b820191906000526020600020905b8154815290600101906020018083116108a057829003601f168201915b5050505050905090565b60006108d282611ba2565b610911576040517f08c379a000000000000000000000000000000000000000000000000000000000815260040161090890613b92565b60405180910390fd5b6004600083815260200190815260200160002060009054906101000a900473ffffffffffffffffffffffffffffffffffffffff169050919050565b600061095782611126565b90508073ffffffffffffffffffffffffffffffffffffffff168373ffffffffffffffffffffffffffffffffffffffff16036109c7576040517f08c379a00000000000000000000000000000000000000000000000000000000081526004016109be90613c24565b60405180910390fd5b8073ffffffffffffffffffffffffffffffffffffffff166109e6611c0e565b73ffffffffffffffffffffffffffffffffffffffff161480610a155750610a1481610a0f611c0e565b6119ad565b5b610a54576040517f08c379a0000000000000000000000000000000000000000000000000000000008152600401610a4b90613cb6565b60405180910390fd5b610a5e8383611c16565b505050565b6000600a80549050905090565b3373ffffffffffffffffffffffffffffffffffffffff16610a9083611126565b73ffffffffffffffffffffffffffffffffffffffff1614610ae6576040517f08c379a0000000000000000000000000000000000000000000000000000000008152600401610add90613d22565b60405180910390fd5b60001515600c600084815260200190815260200160002060020160149054906101000a900460ff16151514610b50576040517f08c379a0000000000000000000000000000000000000000000000000000000008152600401610b4790613d8e565b60405180910390fd5b6010543414610b94576040517f08c379a0000000000000000000000000000000000000000000000000000000008152600401610b8b90613e20565b60405180910390fd5b6001600c600084815260200190815260200160002060020160146101000a81548160ff021916908315150217905550610bcd6008611ccf565b80600c6000848152602001908152602001600020600101819055505050565b610bfd610bf7611c0e565b82611ce5565b610c3c576040517f08c379a0000000000000000000000000000000000000000000000000000000008152600401610c3390613eb2565b60405180910390fd5b610c47838383611dc3565b505050565b6000600c60008381526020019081526020016000206001015490506000610c7283611126565b90508073ffffffffffffffffffffffffffffffffffffffff163373ffffffffffffffffffffffffffffffffffffffff1603610ce2576040517f08c379a0000000000000000000000000000000000000000000000000000000008152600401610cd990613f1e565b60405180910390fd5b813414610d24576040517f08c379a0000000000000000000000000000000000000000000000000000000008152600401610d1b90613f8a565b60405180910390fd5b6000600c600085815260200190815260200160002060020160146101000a81548160ff021916908315150217905550610d5d6008612029565b610d68813385611dc3565b60008173ffffffffffffffffffffffffffffffffffffffff1634604051610d8e90613fdb565b60006040518083038185875af1925050503d8060008114610dcb576040519150601f19603f3d011682016040523d82523d6000602084013e610dd0565b606091505b5050905080610e14576040517f08c379a0000000000000000000000000000000000000000000000000000000008152600401610e0b9061403c565b60405180910390fd5b50505050565b6000610e2583611289565b8210610e66576040517f08c379a0000000000000000000000000000000000000000000000000000000008152600401610e5d906140a8565b60405180910390fd5b600e60008473ffffffffffffffffffffffffffffffffffffffff1673ffffffffffffffffffffffffffffffffffffffff168152602001908152602001600020600083815260200190815260200160002054905092915050565b60606000610ecb610a63565b9050600080610eda6008612085565b67ffffffffffffffff811115610ef357610ef2613683565b5b604051908082528060200260200182016040528015610f2c57816020015b610f19613091565b815260200190600190039081610f115790505b50905060005b8381101561104f576000610f45826110b5565b90506000600c60008381526020019081526020016000209050600115158160020160149054906101000a900460ff1615150361103a578060405180608001604052908160008201548152602001600182015481526020016002820160009054906101000a900473ffffffffffffffffffffffffffffffffffffffff1673ffffffffffffffffffffffffffffffffffffffff1673ffffffffffffffffffffffffffffffffffffffff1681526020016002820160149054906101000a900460ff16151515158152505084868151811061101f5761101e6140c8565b5b60200260200101819052506001856110379190614126565b94505b505080806110479061417c565b915050610f32565b5080935050505090565b611074838383604051806020016040528060008152506116d3565b505050565b600060011515600b8360405161108f9190614200565b908152602001604051809103902060009054906101000a900460ff161515149050919050565b60006110bf610a63565b8210611100576040517f08c379a00000000000000000000000000000000000000000000000000000000081526004016110f7906140a8565b60405180910390fd5b600a8281548110611114576111136140c8565b5b90600052602060002001549050919050565b6000806002600084815260200190815260200160002060009054906101000a900473ffffffffffffffffffffffffffffffffffffffff169050600073ffffffffffffffffffffffffffffffffffffffff168173ffffffffffffffffffffffffffffffffffffffff16036111ce576040517f08c379a00000000000000000000000000000000000000000000000000000000081526004016111c590614289565b60405180910390fd5b80915050919050565b6111df613091565b600c600083815260200190815260200160002060405180608001604052908160008201548152602001600182015481526020016002820160009054906101000a900473ffffffffffffffffffffffffffffffffffffffff1673ffffffffffffffffffffffffffffffffffffffff1673ffffffffffffffffffffffffffffffffffffffff1681526020016002820160149054906101000a900460ff1615151515815250509050919050565b60008073ffffffffffffffffffffffffffffffffffffffff168273ffffffffffffffffffffffffffffffffffffffff16036112f9576040517f08c379a00000000000000000000000000000000000000000000000000000000081526004016112f09061431b565b60405180910390fd5b600360008373ffffffffffffffffffffffffffffffffffffffff1673ffffffffffffffffffffffffffffffffffffffff168152602001908152602001600020549050919050565b6060600061134d33611289565b905060008167ffffffffffffffff81111561136b5761136a613683565b5b6040519080825280602002602001820160405280156113a457816020015b611391613091565b8152602001906001900390816113895790505b50905060005b8281101561149b5760006113be3383610e1a565b90506000600c600083815260200190815260200160002090508060405180608001604052908160008201548152602001600182015481526020016002820160009054906101000a900473ffffffffffffffffffffffffffffffffffffffff1673ffffffffffffffffffffffffffffffffffffffff1673ffffffffffffffffffffffffffffffffffffffff1681526020016002820160149054906101000a900460ff16151515158152505084848151811061147b5761147a6140c8565b5b6020026020010181905250505080806114939061417c565b9150506113aa565b50809250505090565b6114ac611c0e565b73ffffffffffffffffffffffffffffffffffffffff166114ca611601565b73ffffffffffffffffffffffffffffffffffffffff1614611520576040517f08c379a000000000000000000000000000000000000000000000000000000000815260040161151790614387565b60405180910390fd5b61152a6000612093565b565b61153581612159565b50565b611540611c0e565b73ffffffffffffffffffffffffffffffffffffffff1661155e611601565b73ffffffffffffffffffffffffffffffffffffffff16146115b4576040517f08c379a00000000000000000000000000000000000000000000000000000000081526004016115ab90614387565b60405180910390fd5b600081116115f7576040517f08c379a00000000000000000000000000000000000000000000000000000000081526004016115ee906143f3565b60405180910390fd5b8060108190555050565b6000600760009054906101000a900473ffffffffffffffffffffffffffffffffffffffff16905090565b60606001805461163a90613aef565b80601f016020809104026020016040519081016040528092919081815260200182805461166690613aef565b80156116b35780601f10611688576101008083540402835291602001916116b3565b820191906000526020600020905b81548152906001019060200180831161169657829003601f168201915b5050505050905090565b6116cf6116c8611c0e565b83836121ac565b5050565b6116e46116de611c0e565b83611ce5565b611723576040517f08c379a000000000000000000000000000000000000000000000000000000000815260040161171a90613eb2565b60405180910390fd5b61172f84848484612318565b50505050565b600061174083611079565b15611780576040517f08c379a00000000000000000000000000000000000000000000000000000000081526004016117779061445f565b60405180910390fd5b60105434146117c4576040517f08c379a00000000000000000000000000000000000000000000000000000000081526004016117bb906144f1565b60405180910390fd5b6117ce6009611ccf565b6117d86008611ccf565b60006117e46009612085565b90506117f03382612374565b6117fa8185612392565b6118048184612406565b6001600b856040516118169190614200565b908152602001604051809103902060006101000a81548160ff0219169083151502179055508091505092915050565b60105481565b606061185682611ba2565b611895576040517f08c379a000000000000000000000000000000000000000000000000000000000815260040161188c90614583565b60405180910390fd5b60006006600084815260200190815260200160002080546118b590613aef565b80601f01602080910402602001604051908101604052809291908181526020018280546118e190613aef565b801561192e5780601f106119035761010080835404028352916020019161192e565b820191906000526020600020905b81548152906001019060200180831161191157829003601f168201915b50505050509050600061193f612556565b90506000815103611954578192505050611997565b6000825111156119895780826040516020016119719291906145a3565b60405160208183030381529060405292505050611997565b6119928461256d565b925050505b919050565b60006119a86008612085565b905090565b6000600560008473ffffffffffffffffffffffffffffffffffffffff1673ffffffffffffffffffffffffffffffffffffffff16815260200190815260200160002060008373ffffffffffffffffffffffffffffffffffffffff1673ffffffffffffffffffffffffffffffffffffffff16815260200190815260200160002060009054906101000a900460ff16905092915050565b611a49611c0e565b73ffffffffffffffffffffffffffffffffffffffff16611a67611601565b73ffffffffffffffffffffffffffffffffffffffff1614611abd576040517f08c379a0000000000000000000000000000000000000000000000000000000008152600401611ab490614387565b60405180910390fd5b600073ffffffffffffffffffffffffffffffffffffffff168173ffffffffffffffffffffffffffffffffffffffff1603611b2c576040517f08c379a0000000000000000000000000000000000000000000000000000000008152600401611b2390614639565b60405180910390fd5b611b3581612093565b50565b60007f01ffc9a7000000000000000000000000000000000000000000000000000000007bffffffffffffffffffffffffffffffffffffffffffffffffffffffff1916827bffffffffffffffffffffffffffffffffffffffffffffffffffffffff1916149050919050565b60008073ffffffffffffffffffffffffffffffffffffffff166002600084815260200190815260200160002060009054906101000a900473ffffffffffffffffffffffffffffffffffffffff1673ffffffffffffffffffffffffffffffffffffffff1614159050919050565b600033905090565b816004600083815260200190815260200160002060006101000a81548173ffffffffffffffffffffffffffffffffffffffff021916908373ffffffffffffffffffffffffffffffffffffffff160217905550808273ffffffffffffffffffffffffffffffffffffffff16611c8983611126565b73ffffffffffffffffffffffffffffffffffffffff167f8c5be1e5ebec7d5bd14f71427d1e84f3dd0314c0f7b2291e5b200ac8c7c3b92560405160405180910390a45050565b6001816000016000828254019250508190555050565b6000611cf082611ba2565b611d2f576040517f08c379a0000000000000000000000000000000000000000000000000000000008152600401611d26906146cb565b60405180910390fd5b6000611d3a83611126565b90508073ffffffffffffffffffffffffffffffffffffffff168473ffffffffffffffffffffffffffffffffffffffff161480611d7c5750611d7b81856119ad565b5b80611dba57508373ffffffffffffffffffffffffffffffffffffffff16611da2846108c7565b73ffffffffffffffffffffffffffffffffffffffff16145b91505092915050565b8273ffffffffffffffffffffffffffffffffffffffff16611de382611126565b73ffffffffffffffffffffffffffffffffffffffff1614611e39576040517f08c379a0000000000000000000000000000000000000000000000000000000008152600401611e309061475d565b60405180910390fd5b600073ffffffffffffffffffffffffffffffffffffffff168273ffffffffffffffffffffffffffffffffffffffff1603611ea8576040517f08c379a0000000000000000000000000000000000000000000000000000000008152600401611e9f906147ef565b60405180910390fd5b611eb3838383612614565b611ebe600082611c16565b6001600360008573ffffffffffffffffffffffffffffffffffffffff1673ffffffffffffffffffffffffffffffffffffffff1681526020019081526020016000206000828254611f0e919061480f565b925050819055506001600360008473ffffffffffffffffffffffffffffffffffffffff1673ffffffffffffffffffffffffffffffffffffffff1681526020019081526020016000206000828254611f659190614126565b92505081905550816002600083815260200190815260200160002060006101000a81548173ffffffffffffffffffffffffffffffffffffffff021916908373ffffffffffffffffffffffffffffffffffffffff160217905550808273ffffffffffffffffffffffffffffffffffffffff168473ffffffffffffffffffffffffffffffffffffffff167fddf252ad1be2c89b69c2b068fc378daa952ba7f163c4a11628f55a4df523b3ef60405160405180910390a4612024838383612726565b505050565b60008160000154905060008111612075576040517f08c379a000000000000000000000000000000000000000000000000000000000815260040161206c9061488f565b60405180910390fd5b6001810382600001819055505050565b600081600001549050919050565b6000600760009054906101000a900473ffffffffffffffffffffffffffffffffffffffff16905081600760006101000a81548173ffffffffffffffffffffffffffffffffffffffff021916908373ffffffffffffffffffffffffffffffffffffffff1602179055508173ffffffffffffffffffffffffffffffffffffffff168173ffffffffffffffffffffffffffffffffffffffff167f8be0079c531659141344cd1fd0a4f28419497f9722a3daafe3b4186f6b6457e060405160405180910390a35050565b6121628161272b565b600060066000838152602001908152602001600020805461218290613aef565b9050146121a9576006600082815260200190815260200160002060006121a891906130d1565b5b50565b8173ffffffffffffffffffffffffffffffffffffffff168373ffffffffffffffffffffffffffffffffffffffff160361221a576040517f08c379a0000000000000000000000000000000000000000000000000000000008152600401612211906148fb565b60405180910390fd5b80600560008573ffffffffffffffffffffffffffffffffffffffff1673ffffffffffffffffffffffffffffffffffffffff16815260200190815260200160002060008473ffffffffffffffffffffffffffffffffffffffff1673ffffffffffffffffffffffffffffffffffffffff16815260200190815260200160002060006101000a81548160ff0219169083151502179055508173ffffffffffffffffffffffffffffffffffffffff168373ffffffffffffffffffffffffffffffffffffffff167f17307eab39ab6107e8899845ad3d59bd9653f200f220920489ca2b5937696c318360405161230b9190613268565b60405180910390a3505050565b612323848484611dc3565b61232f84848484612848565b61236e576040517f08c379a00000000000000000000000000000000000000000000000000000000081526004016123659061498d565b60405180910390fd5b50505050565b61238e8282604051806020016040528060008152506129cf565b5050565b61239b82611ba2565b6123da576040517f08c379a00000000000000000000000000000000000000000000000000000000081526004016123d190614a1f565b60405180910390fd5b80600660008481526020019081526020016000209080519060200190612401929190613111565b505050565b60008111612449576040517f08c379a0000000000000000000000000000000000000000000000000000000008152600401612440906143f3565b60405180910390fd5b60405180608001604052808381526020018281526020013373ffffffffffffffffffffffffffffffffffffffff16815260200160011515815250600c6000848152602001908152602001600020600082015181600001556020820151816001015560408201518160020160006101000a81548173ffffffffffffffffffffffffffffffffffffffff021916908373ffffffffffffffffffffffffffffffffffffffff16021790555060608201518160020160146101000a81548160ff0219169083151502179055509050507f470031062672bc0246e132c723a729c4676710ec663a29e86c88678032daddea828233600160405161254a9493929190614a3f565b60405180910390a15050565b606060405180602001604052806000815250905090565b606061257882611ba2565b6125b7576040517f08c379a00000000000000000000000000000000000000000000000000000000081526004016125ae90614af6565b60405180910390fd5b60006125c1612556565b905060008151116125e1576040518060200160405280600081525061260c565b806125eb84612a2a565b6040516020016125fc9291906145a3565b6040516020818303038152906040525b915050919050565b61261f838383612b8a565b600073ffffffffffffffffffffffffffffffffffffffff168373ffffffffffffffffffffffffffffffffffffffff16036126615761265c81612b8f565b6126a0565b8173ffffffffffffffffffffffffffffffffffffffff168373ffffffffffffffffffffffffffffffffffffffff161461269f5761269e8382612bd8565b5b5b600073ffffffffffffffffffffffffffffffffffffffff168273ffffffffffffffffffffffffffffffffffffffff16036126e2576126dd81612d45565b612721565b8273ffffffffffffffffffffffffffffffffffffffff168273ffffffffffffffffffffffffffffffffffffffff16146127205761271f8282612e16565b5b5b505050565b505050565b600061273682611126565b905061274481600084612614565b61274f600083611c16565b6001600360008373ffffffffffffffffffffffffffffffffffffffff1673ffffffffffffffffffffffffffffffffffffffff168152602001908152602001600020600082825461279f919061480f565b925050819055506002600083815260200190815260200160002060006101000a81549073ffffffffffffffffffffffffffffffffffffffff021916905581600073ffffffffffffffffffffffffffffffffffffffff168273ffffffffffffffffffffffffffffffffffffffff167fddf252ad1be2c89b69c2b068fc378daa952ba7f163c4a11628f55a4df523b3ef60405160405180910390a461284481600084612726565b5050565b60006128698473ffffffffffffffffffffffffffffffffffffffff16612e95565b156129c2578373ffffffffffffffffffffffffffffffffffffffff1663150b7a02612892611c0e565b8786866040518563ffffffff1660e01b81526004016128b49493929190614b6b565b6020604051808303816000875af19250505080156128f057506040513d601f19601f820116820180604052508101906128ed9190614bcc565b60015b612972573d8060008114612920576040519150601f19603f3d011682016040523d82523d6000602084013e612925565b606091505b50600081510361296a576040517f08c379a00000000000000000000000000000000000000000000000000000000081526004016129619061498d565b60405180910390fd5b805181602001fd5b63150b7a0260e01b7bffffffffffffffffffffffffffffffffffffffffffffffffffffffff1916817bffffffffffffffffffffffffffffffffffffffffffffffffffffffff1916149150506129c7565b600190505b949350505050565b6129d98383612eb8565b6129e66000848484612848565b612a25576040517f08c379a0000000000000000000000000000000000000000000000000000000008152600401612a1c9061498d565b60405180910390fd5b505050565b606060008203612a71576040518060400160405280600181526020017f30000000000000000000000000000000000000000000000000000000000000008152509050612b85565b600082905060005b60008214612aa3578080612a8c9061417c565b915050600a82612a9c9190614c28565b9150612a79565b60008167ffffffffffffffff811115612abf57612abe613683565b5b6040519080825280601f01601f191660200182016040528015612af15781602001600182028036833780820191505090505b5090505b60008514612b7e57600182612b0a919061480f565b9150600a85612b199190614c59565b6030612b259190614126565b60f81b818381518110612b3b57612b3a6140c8565b5b60200101907effffffffffffffffffffffffffffffffffffffffffffffffffffffffffffff1916908160001a905350600a85612b779190614c28565b9450612af5565b8093505050505b919050565b505050565b600a80549050600d600083815260200190815260200160002081905550600a81908060018154018082558091505060019003906000526020600020016000909190919091505550565b60006001612be584611289565b612bef919061480f565b90506000600f6000848152602001908152602001600020549050818114612cd4576000600e60008673ffffffffffffffffffffffffffffffffffffffff1673ffffffffffffffffffffffffffffffffffffffff168152602001908152602001600020600084815260200190815260200160002054905080600e60008773ffffffffffffffffffffffffffffffffffffffff1673ffffffffffffffffffffffffffffffffffffffff16815260200190815260200160002060008481526020019081526020016000208190555081600f600083815260200190815260200160002081905550505b600f600084815260200190815260200160002060009055600e60008573ffffffffffffffffffffffffffffffffffffffff1673ffffffffffffffffffffffffffffffffffffffff16815260200190815260200160002060008381526020019081526020016000206000905550505050565b60006001600a80549050612d59919061480f565b90506000600d60008481526020019081526020016000205490506000600a8381548110612d8957612d886140c8565b5b9060005260206000200154905080600a8381548110612dab57612daa6140c8565b5b906000526020600020018190555081600d600083815260200190815260200160002081905550600d600085815260200190815260200160002060009055600a805480612dfa57612df9614c8a565b5b6001900381819060005260206000200160009055905550505050565b6000612e2183611289565b905081600e60008573ffffffffffffffffffffffffffffffffffffffff1673ffffffffffffffffffffffffffffffffffffffff16815260200190815260200160002060008381526020019081526020016000208190555080600f600084815260200190815260200160002081905550505050565b6000808273ffffffffffffffffffffffffffffffffffffffff163b119050919050565b600073ffffffffffffffffffffffffffffffffffffffff168273ffffffffffffffffffffffffffffffffffffffff1603612f27576040517f08c379a0000000000000000000000000000000000000000000000000000000008152600401612f1e90614d05565b60405180910390fd5b612f3081611ba2565b15612f70576040517f08c379a0000000000000000000000000000000000000000000000000000000008152600401612f6790614d71565b60405180910390fd5b612f7c60008383612614565b6001600360008473ffffffffffffffffffffffffffffffffffffffff1673ffffffffffffffffffffffffffffffffffffffff1681526020019081526020016000206000828254612fcc9190614126565b92505081905550816002600083815260200190815260200160002060006101000a81548173ffffffffffffffffffffffffffffffffffffffff021916908373ffffffffffffffffffffffffffffffffffffffff160217905550808273ffffffffffffffffffffffffffffffffffffffff16600073ffffffffffffffffffffffffffffffffffffffff167fddf252ad1be2c89b69c2b068fc378daa952ba7f163c4a11628f55a4df523b3ef60405160405180910390a461308d60008383612726565b5050565b60405180608001604052806000815260200160008152602001600073ffffffffffffffffffffffffffffffffffffffff1681526020016000151581525090565b5080546130dd90613aef565b6000825580601f106130ef575061310e565b601f01602090049060005260206000209081019061310d9190613197565b5b50565b82805461311d90613aef565b90600052602060002090601f01602090048101928261313f5760008555613186565b82601f1061315857805160ff1916838001178555613186565b82800160010185558215613186579182015b8281111561318557825182559160200191906001019061316a565b5b5090506131939190613197565b5090565b5b808211156131b0576000816000905550600101613198565b5090565b6000604051905090565b600080fd5b600080fd5b60007fffffffff0000000000000000000000000000000000000000000000000000000082169050919050565b6131fd816131c8565b811461320857600080fd5b50565b60008135905061321a816131f4565b92915050565b600060208284031215613236576132356131be565b5b60006132448482850161320b565b91505092915050565b60008115159050919050565b6132628161324d565b82525050565b600060208201905061327d6000830184613259565b92915050565b600081519050919050565b600082825260208201905092915050565b60005b838110156132bd5780820151818401526020810190506132a2565b838111156132cc576000848401525b50505050565b6000601f19601f8301169050919050565b60006132ee82613283565b6132f8818561328e565b935061330881856020860161329f565b613311816132d2565b840191505092915050565b6000602082019050818103600083015261333681846132e3565b905092915050565b6000819050919050565b6133518161333e565b811461335c57600080fd5b50565b60008135905061336e81613348565b92915050565b60006020828403121561338a576133896131be565b5b60006133988482850161335f565b91505092915050565b600073ffffffffffffffffffffffffffffffffffffffff82169050919050565b60006133cc826133a1565b9050919050565b6133dc816133c1565b82525050565b60006020820190506133f760008301846133d3565b92915050565b613406816133c1565b811461341157600080fd5b50565b600081359050613423816133fd565b92915050565b600080604083850312156134405761343f6131be565b5b600061344e85828601613414565b925050602061345f8582860161335f565b9150509250929050565b6134728161333e565b82525050565b600060208201905061348d6000830184613469565b92915050565b600080604083850312156134aa576134a96131be565b5b60006134b88582860161335f565b92505060206134c98582860161335f565b9150509250929050565b6000806000606084860312156134ec576134eb6131be565b5b60006134fa86828701613414565b935050602061350b86828701613414565b925050604061351c8682870161335f565b9150509250925092565b600081519050919050565b600082825260208201905092915050565b6000819050602082019050919050565b61355b8161333e565b82525050565b61356a816133c1565b82525050565b6135798161324d565b82525050565b6080820160008201516135956000850182613552565b5060208201516135a86020850182613552565b5060408201516135bb6040850182613561565b5060608201516135ce6060850182613570565b50505050565b60006135e0838361357f565b60808301905092915050565b6000602082019050919050565b600061360482613526565b61360e8185613531565b935061361983613542565b8060005b8381101561364a57815161363188826135d4565b975061363c836135ec565b92505060018101905061361d565b5085935050505092915050565b6000602082019050818103600083015261367181846135f9565b905092915050565b600080fd5b600080fd5b7f4e487b7100000000000000000000000000000000000000000000000000000000600052604160045260246000fd5b6136bb826132d2565b810181811067ffffffffffffffff821117156136da576136d9613683565b5b80604052505050565b60006136ed6131b4565b90506136f982826136b2565b919050565b600067ffffffffffffffff82111561371957613718613683565b5b613722826132d2565b9050602081019050919050565b82818337600083830152505050565b600061375161374c846136fe565b6136e3565b90508281526020810184848401111561376d5761376c61367e565b5b61377884828561372f565b509392505050565b600082601f83011261379557613794613679565b5b81356137a584826020860161373e565b91505092915050565b6000602082840312156137c4576137c36131be565b5b600082013567ffffffffffffffff8111156137e2576137e16131c3565b5b6137ee84828501613780565b91505092915050565b60808201600082015161380d6000850182613552565b5060208201516138206020850182613552565b5060408201516138336040850182613561565b5060608201516138466060850182613570565b50505050565b600060808201905061386160008301846137f7565b92915050565b60006020828403121561387d5761387c6131be565b5b600061388b84828501613414565b91505092915050565b61389d8161324d565b81146138a857600080fd5b50565b6000813590506138ba81613894565b92915050565b600080604083850312156138d7576138d66131be565b5b60006138e585828601613414565b92505060206138f6858286016138ab565b9150509250929050565b600067ffffffffffffffff82111561391b5761391a613683565b5b613924826132d2565b9050602081019050919050565b600061394461393f84613900565b6136e3565b9050828152602081018484840111156139605761395f61367e565b5b61396b84828561372f565b509392505050565b600082601f83011261398857613987613679565b5b8135613998848260208601613931565b91505092915050565b600080600080608085870312156139bb576139ba6131be565b5b60006139c987828801613414565b94505060206139da87828801613414565b93505060406139eb8782880161335f565b925050606085013567ffffffffffffffff811115613a0c57613a0b6131c3565b5b613a1887828801613973565b91505092959194509250565b60008060408385031215613a3b57613a3a6131be565b5b600083013567ffffffffffffffff811115613a5957613a586131c3565b5b613a6585828601613780565b9250506020613a768582860161335f565b9150509250929050565b60008060408385031215613a9757613a966131be565b5b6000613aa585828601613414565b9250506020613ab685828601613414565b9150509250929050565b7f4e487b7100000000000000000000000000000000000000000000000000000000600052602260045260246000fd5b60006002820490506001821680613b0757607f821691505b602082108103613b1a57613b19613ac0565b5b50919050565b7f4552433732313a20617070726f76656420717565727920666f72206e6f6e657860008201527f697374656e7420746f6b656e0000000000000000000000000000000000000000602082015250565b6000613b7c602c8361328e565b9150613b8782613b20565b604082019050919050565b60006020820190508181036000830152613bab81613b6f565b9050919050565b7f4552433732313a20617070726f76616c20746f2063757272656e74206f776e6560008201527f7200000000000000000000000000000000000000000000000000000000000000602082015250565b6000613c0e60218361328e565b9150613c1982613bb2565b604082019050919050565b60006020820190508181036000830152613c3d81613c01565b9050919050565b7f4552433732313a20617070726f76652063616c6c6572206973206e6f74206f7760008201527f6e6572206e6f7220617070726f76656420666f7220616c6c0000000000000000602082015250565b6000613ca060388361328e565b9150613cab82613c44565b604082019050919050565b60006020820190508181036000830152613ccf81613c93565b9050919050565b7f596f7520617265206e6f7420746865206f776e6572206f6620746865204e6674600082015250565b6000613d0c60208361328e565b9150613d1782613cd6565b602082019050919050565b60006020820190508181036000830152613d3b81613cff565b9050919050565b7f4974656d20697320616c7265616479206f6e2073616c65000000000000000000600082015250565b6000613d7860178361328e565b9150613d8382613d42565b602082019050919050565b60006020820190508181036000830152613da781613d6b565b9050919050565b7f5072696365206d75737420626520657175616c20746f206c697374696e67207060008201527f7269636500000000000000000000000000000000000000000000000000000000602082015250565b6000613e0a60248361328e565b9150613e1582613dae565b604082019050919050565b60006020820190508181036000830152613e3981613dfd565b9050919050565b7f4552433732313a207472616e736665722063616c6c6572206973206e6f74206f60008201527f776e6572206e6f7220617070726f766564000000000000000000000000000000602082015250565b6000613e9c60318361328e565b9150613ea782613e40565b604082019050919050565b60006020820190508181036000830152613ecb81613e8f565b9050919050565b7f596f7520616c7265616479206f776e2074686973206e66740000000000000000600082015250565b6000613f0860188361328e565b9150613f1382613ed2565b602082019050919050565b60006020820190508181036000830152613f3781613efb565b9050919050565b7f506c65617365207375626d6974207468652061736b696e672070726963650000600082015250565b6000613f74601e8361328e565b9150613f7f82613f3e565b602082019050919050565b60006020820190508181036000830152613fa381613f67565b9050919050565b600081905092915050565b50565b6000613fc5600083613faa565b9150613fd082613fb5565b600082019050919050565b6000613fe682613fb8565b9150819050919050565b7f5472616e73666572206f662073616c656420746f6b656e206661696c65640000600082015250565b6000614026601e8361328e565b915061403182613ff0565b602082019050919050565b6000602082019050818103600083015261405581614019565b9050919050565b7f496e646578206f7574206f6620626f756e647300000000000000000000000000600082015250565b600061409260138361328e565b915061409d8261405c565b602082019050919050565b600060208201905081810360008301526140c181614085565b9050919050565b7f4e487b7100000000000000000000000000000000000000000000000000000000600052603260045260246000fd5b7f4e487b7100000000000000000000000000000000000000000000000000000000600052601160045260246000fd5b60006141318261333e565b915061413c8361333e565b9250827fffffffffffffffffffffffffffffffffffffffffffffffffffffffffffffffff03821115614171576141706140f7565b5b828201905092915050565b60006141878261333e565b91507fffffffffffffffffffffffffffffffffffffffffffffffffffffffffffffffff82036141b9576141b86140f7565b5b600182019050919050565b600081905092915050565b60006141da82613283565b6141e481856141c4565b93506141f481856020860161329f565b80840191505092915050565b600061420c82846141cf565b915081905092915050565b7f4552433732313a206f776e657220717565727920666f72206e6f6e657869737460008201527f656e7420746f6b656e0000000000000000000000000000000000000000000000602082015250565b600061427360298361328e565b915061427e82614217565b604082019050919050565b600060208201905081810360008301526142a281614266565b9050919050565b7f4552433732313a2062616c616e636520717565727920666f7220746865207a6560008201527f726f206164647265737300000000000000000000000000000000000000000000602082015250565b6000614305602a8361328e565b9150614310826142a9565b604082019050919050565b60006020820190508181036000830152614334816142f8565b9050919050565b7f4f776e61626c653a2063616c6c6572206973206e6f7420746865206f776e6572600082015250565b600061437160208361328e565b915061437c8261433b565b602082019050919050565b600060208201905081810360008301526143a081614364565b9050919050565b7f5072696365206d757374206265206174206c6561737420312077656900000000600082015250565b60006143dd601c8361328e565b91506143e8826143a7565b602082019050919050565b6000602082019050818103600083015261440c816143d0565b9050919050565b7f546f6b656e2055524920616c7265616479206578697374730000000000000000600082015250565b600061444960188361328e565b915061445482614413565b602082019050919050565b600060208201905081810360008301526144788161443c565b9050919050565b7f5072696365206d75737420626520657175616c20746f206c697374696e67206660008201527f6565000000000000000000000000000000000000000000000000000000000000602082015250565b60006144db60228361328e565b91506144e68261447f565b604082019050919050565b6000602082019050818103600083015261450a816144ce565b9050919050565b7f45524337323155524953746f726167653a2055524920717565727920666f722060008201527f6e6f6e6578697374656e7420746f6b656e000000000000000000000000000000602082015250565b600061456d60318361328e565b915061457882614511565b604082019050919050565b6000602082019050818103600083015261459c81614560565b9050919050565b60006145af82856141cf565b91506145bb82846141cf565b91508190509392505050565b7f4f776e61626c653a206e6577206f776e657220697320746865207a65726f206160008201527f6464726573730000000000000000000000000000000000000000000000000000602082015250565b600061462360268361328e565b915061462e826145c7565b604082019050919050565b6000602082019050818103600083015261465281614616565b9050919050565b7f4552433732313a206f70657261746f7220717565727920666f72206e6f6e657860008201527f697374656e7420746f6b656e0000000000000000000000000000000000000000602082015250565b60006146b5602c8361328e565b91506146c082614659565b604082019050919050565b600060208201905081810360008301526146e4816146a8565b9050919050565b7f4552433732313a207472616e736665722066726f6d20696e636f72726563742060008201527f6f776e6572000000000000000000000000000000000000000000000000000000602082015250565b600061474760258361328e565b9150614752826146eb565b604082019050919050565b600060208201905081810360008301526147768161473a565b9050919050565b7f4552433732313a207472616e7366657220746f20746865207a65726f2061646460008201527f7265737300000000000000000000000000000000000000000000000000000000602082015250565b60006147d960248361328e565b91506147e48261477d565b604082019050919050565b60006020820190508181036000830152614808816147cc565b9050919050565b600061481a8261333e565b91506148258361333e565b925082821015614838576148376140f7565b5b828203905092915050565b7f436f756e7465723a2064656372656d656e74206f766572666c6f770000000000600082015250565b6000614879601b8361328e565b915061488482614843565b602082019050919050565b600060208201905081810360008301526148a88161486c565b9050919050565b7f4552433732313a20617070726f766520746f2063616c6c657200000000000000600082015250565b60006148e560198361328e565b91506148f0826148af565b602082019050919050565b60006020820190508181036000830152614914816148d8565b9050919050565b7f4552433732313a207472616e7366657220746f206e6f6e20455243373231526560008201527f63656976657220696d706c656d656e7465720000000000000000000000000000602082015250565b600061497760328361328e565b91506149828261491b565b604082019050919050565b600060208201905081810360008301526149a68161496a565b9050919050565b7f45524337323155524953746f726167653a2055524920736574206f66206e6f6e60008201527f6578697374656e7420746f6b656e000000000000000000000000000000000000602082015250565b6000614a09602e8361328e565b9150614a14826149ad565b604082019050919050565b60006020820190508181036000830152614a38816149fc565b9050919050565b6000608082019050614a546000830187613469565b614a616020830186613469565b614a6e60408301856133d3565b614a7b6060830184613259565b95945050505050565b7f4552433732314d657461646174613a2055524920717565727920666f72206e6f60008201527f6e6578697374656e7420746f6b656e0000000000000000000000000000000000602082015250565b6000614ae0602f8361328e565b9150614aeb82614a84565b604082019050919050565b60006020820190508181036000830152614b0f81614ad3565b9050919050565b600081519050919050565b600082825260208201905092915050565b6000614b3d82614b16565b614b478185614b21565b9350614b5781856020860161329f565b614b60816132d2565b840191505092915050565b6000608082019050614b8060008301876133d3565b614b8d60208301866133d3565b614b9a6040830185613469565b8181036060830152614bac8184614b32565b905095945050505050565b600081519050614bc6816131f4565b92915050565b600060208284031215614be257614be16131be565b5b6000614bf084828501614bb7565b91505092915050565b7f4e487b7100000000000000000000000000000000000000000000000000000000600052601260045260246000fd5b6000614c338261333e565b9150614c3e8361333e565b925082614c4e57614c4d614bf9565b5b828204905092915050565b6000614c648261333e565b9150614c6f8361333e565b925082614c7f57614c7e614bf9565b5b828206905092915050565b7f4e487b7100000000000000000000000000000000000000000000000000000000600052603160045260246000fd5b7f4552433732313a206d696e7420746f20746865207a65726f2061646472657373600082015250565b6000614cef60208361328e565b9150614cfa82614cb9565b602082019050919050565b60006020820190508181036000830152614d1e81614ce2565b9050919050565b7f4552433732313a20746f6b656e20616c7265616479206d696e74656400000000600082015250565b6000614d5b601c8361328e565b9150614d6682614d25565b602082019050919050565b60006020820190508181036000830152614d8a81614d4e565b905091905056fea2646970667358221220d94a2e6f135d1643029000c59b4a8932682917b3c194fb3170fb9b3183cb05c764736f6c634300080d0033",
  "immutableReferences": {},
  "source": "// SPDX-License-Identifier: MIT\npragma solidity >=0.4.22 <0.9.0;\n\nimport \"../node_modules/@openzeppelin/contracts/token/ERC721/extensions/ERC721URIStorage.sol\";\nimport \"../node_modules/@openzeppelin/contracts/utils/Counters.sol\";\nimport \"../node_modules/@openzeppelin/contracts/access/Ownable.sol\";\n\n// In truffle, accounts[0] by default deploys the contract so it is the owner\n// tokenURIs are also stored in \"storage\". The base implementation in ERC721.sol reads the baseURI in memory and concatenates the resulting String on-the-fly, without storing them as a state var.\ncontract NftMarket is ERC721URIStorage, Ownable {\n    // using A for B, it means that we attach every function from library A to type B.\n    // Libraries are an efficient way to reduce gas fees, because they are deployed only once at a specific address with its code being reused by various contracts.\n    using Counters for Counters.Counter;\n    // initially 0\n    Counters.Counter private _listedItems;\n    Counters.Counter private _tokenIds;\n    // all token id's in array\n    uint256[] private _allNfts;\n    mapping(string => bool) private _usedTokenURIs;\n    mapping(uint => NftItem) private _idToNftItem;\n    // tokenId=>index\n    mapping(uint => uint) private _idToNftIndex;\n    //{address:{1:tokenId-1,2:tokenId-2}}\n    mapping(address => mapping(uint => uint)) private _ownedTokens;\n    // Tokenid --> index\n    mapping(uint => uint) private _idToOwnedIndex;\n    uint public listingPrice = 0.025 ether;\n\n    struct NftItem {\n        uint tokenId;\n        uint price;\n        // creator and owner are not same. creator someone who minted. creator does not change\n        address creator;\n        bool isListed;\n    }\n    // we dont have to put \";\" after {} but after ()\n    event NftItemCreated(\n        uint tokenId,\n        uint price,\n        address creator,\n        bool isListed\n    );\n\n    constructor() ERC721(\"CreaturesNFT\", \"CNFT\") {}\n\n    function burnToken(uint tokenId) public {\n        // _burn is from URIStorage\n        _burn(tokenId);\n    }\n\n    // price is the price of the nft to be sold, msg.value is the listing price paid to the marketplace\n    function mintToken(string memory tokenURI, uint price)\n        public\n        payable\n        returns (uint)\n    {\n        require(!tokenURIExists(tokenURI), \"Token URI already exists\");\n        require(\n            msg.value == listingPrice,\n            \"Price must be equal to listing fee\"\n        );\n        _tokenIds.increment();\n        _listedItems.increment();\n        uint newTokenId = _tokenIds.current();\n        //calls _mint which calls _beforeTokenTransfer, adjust balances, emit transfer, calls _afterTokenTransfer\n        _safeMint(msg.sender, newTokenId);\n        // ERC721URIStorage\n        _setTokenURI(newTokenId, tokenURI);\n        _createNftItem(newTokenId, price);\n        _usedTokenURIs[tokenURI] = true;\n        return newTokenId;\n    }\n\n    function setListingPrice(uint newPrice) external onlyOwner {\n        require(newPrice > 0, \"Price must be at least 1 wei\");\n        listingPrice = newPrice;\n    }\n\n    // why do we have to set memory for struct data\n    function getNftItem(uint tokenId) public view returns (NftItem memory) {\n        return _idToNftItem[tokenId];\n    }\n\n    function listedItemsCount() public view returns (uint) {\n        return _listedItems.current();\n    }\n\n    function tokenURIExists(string memory tokenURI) public view returns (bool) {\n        return _usedTokenURIs[tokenURI] == true;\n    }\n\n    function totalSupply() public view returns (uint) {\n        return _allNfts.length;\n    }\n\n    // uint is unsigned greater than 0\n    function tokenByIndex(uint index) public view returns (uint) {\n        require(index < totalSupply(), \"Index out of bounds\");\n        return _allNfts[index];\n    }\n\n    function tokenOfOwnerByIndex(address owner, uint index)\n        public\n        view\n        returns (uint)\n    {\n        //_balances[owner] |  mapping(address => uint256) private _balances\n        require(index < ERC721.balanceOf(owner), \"Index out of bounds\");\n        return _ownedTokens[owner][index];\n    }\n\n    function getAllNftsOnSale() public view returns (NftItem[] memory) {\n        uint allItemsCount = totalSupply();\n        uint currentIndex = 0;\n        NftItem[] memory items = new NftItem[](_listedItems.current());\n        for (uint i = 0; i < allItemsCount; i++) {\n            uint tokenId = tokenByIndex(i);\n            NftItem storage item = _idToNftItem[tokenId];\n            if (item.isListed == true) {\n                // To add value to the memory array, we cannot use the .push() method\n                items[currentIndex] = item;\n                currentIndex += 1;\n            }\n        }\n        return items;\n    }\n\n    function getOwnedNfts() public view returns (NftItem[] memory) {\n        // when we mint, erc721._mint saves this\n        uint ownedItemsCount = ERC721.balanceOf(msg.sender);\n        NftItem[] memory items = new NftItem[](ownedItemsCount);\n        for (uint i = 0; i < ownedItemsCount; i++) {\n            uint tokenId = tokenOfOwnerByIndex(msg.sender, i);\n            NftItem storage item = _idToNftItem[tokenId];\n            items[i] = item;\n        }\n        return items;\n    }\n\n    function buyNft(uint tokenId) public payable {\n        uint price = _idToNftItem[tokenId].price;\n        // this is set in erc721 contract\n        // Since contracts are inheriting, I want to make sure I use this method in ERC721\n        address owner = ERC721.ownerOf(tokenId);\n        require(msg.sender != owner, \"You already own this nft\");\n        require(msg.value == price, \"Please submit the asking price\");\n        _idToNftItem[tokenId].isListed = false;\n        _listedItems.decrement();\n        _transfer(owner, msg.sender, tokenId);\n        // should be call{value}\n        // payable(owner).transfer(msg.value);\n        (bool success, ) = owner.call{value: msg.value}(\"\");\n        require(success, \"Transfer of saled token failed\");\n    }\n\n    function _createNftItem(uint tokenId, uint price) private {\n        require(price > 0, \"Price must be at least 1 wei\");\n        _idToNftItem[tokenId] = NftItem(tokenId, price, msg.sender, true);\n        emit NftItemCreated(tokenId, price, msg.sender, true);\n    }\n\n    // this gets executed in erc721in _mint,_burn and _transfer\n    // this is virtual in erc721 so we have to implement\n    function _beforeTokenTransfer(\n        address from,\n        address to,\n        uint tokenId\n    ) internal virtual override {\n        // in case this is provided in super contract, the contract that you are extending from call this\n        super._beforeTokenTransfer(from, to, tokenId);\n        // that means we are minting the token\n        // Becasue inside ERC721._mint we call _beforeTokenTransfer(address(0),to,tokenId)\n        if (from == address(0)) {\n            _addTokenToAllTokensEnumeration(tokenId);\n        } else if (from != to) {\n            // this is transfer case\n            // we first remove the owner and add ownership to another owner\n            _removeTokenFromOwnerEnumeration(from, tokenId);\n        }\n        // we are burning token\n        if (to == address(0)) {\n            _removeTokenFromAlTokenEnumeration(tokenId);\n        } else if (to != from) {\n            // this also satisfied when we mint the token.\n            _addTokenToOwnerEnumeration(to, tokenId);\n        }\n    }\n\n    function _addTokenToAllTokensEnumeration(uint tokenId) private {\n        _idToNftIndex[tokenId] = _allNfts.length;\n        _allNfts.push(tokenId);\n    }\n\n    function _addTokenToOwnerEnumeration(address to, uint tokenId) private {\n        uint length = ERC721.balanceOf(to);\n        _ownedTokens[to][length] = tokenId;\n        _idToOwnedIndex[tokenId] = length;\n    }\n\n    function _removeTokenFromOwnerEnumeration(address from, uint tokenId)\n        private\n    {\n        uint lastTokenIndex = ERC721.balanceOf(from) - 1;\n        // I want to remove this\n        uint tokenIndex = _idToOwnedIndex[tokenId];\n        if (tokenIndex != lastTokenIndex) {\n            uint lastTokenId = _ownedTokens[from][lastTokenIndex];\n            // this is remapping\n            _ownedTokens[from][tokenIndex] = lastTokenId;\n            _idToOwnedIndex[lastTokenId] = tokenIndex;\n        }\n        // if we want to delete the last index we would get here directly\n        delete _idToOwnedIndex[tokenId];\n        delete _ownedTokens[from][lastTokenIndex];\n    }\n\n    // destroying token\n    function _removeTokenFromAlTokenEnumeration(uint tokenId) private {\n        uint lastTokenIndex = _allNfts.length - 1;\n        uint tokenIndexToRemove = _idToNftIndex[tokenId];\n        uint lastTokenId = _allNfts[lastTokenIndex];\n        // after this we will have two lastTokenid in the array\n        _allNfts[tokenIndexToRemove] = lastTokenId;\n        _idToNftIndex[lastTokenId] = tokenIndexToRemove;\n        delete _idToNftIndex[tokenId];\n        _allNfts.pop();\n    }\n\n    function placeNftOnSale(uint tokenId, uint newPrice) public payable {\n        // if the owner of the token is the sender of the transaction\n        require(\n            ERC721.ownerOf(tokenId) == msg.sender,\n            \"You are not the owner of the Nft\"\n        );\n        require(\n            _idToNftItem[tokenId].isListed == false,\n            \"Item is already on sale\"\n        );\n        require(\n            msg.value == listingPrice,\n            \"Price must be equal to listing price\"\n        );\n        _idToNftItem[tokenId].isListed = true;\n        _listedItems.increment();\n        _idToNftItem[tokenId].price = newPrice;\n    }\n}\n",
  "sourcePath": "/home/tesla/Documents/projects/ethereum/Filip/nft-marketplace/contracts/NftMarket.sol",
  "compiler": {
    "name": "solc",
    "version": "0.8.13+commit.abaa5c0e.Emscripten.clang"
  },
  "schemaVersion": "3.4.10",
  "updatedAt": "2022-12-01T19:42:25.543Z",
  "networkType": "ethereum",
  "devdoc": {
    "kind": "dev",
    "methods": {
      "approve(address,uint256)": {
        "details": "See {IERC721-approve}."
      },
      "balanceOf(address)": {
        "details": "See {IERC721-balanceOf}."
      },
      "getApproved(uint256)": {
        "details": "See {IERC721-getApproved}."
      },
      "isApprovedForAll(address,address)": {
        "details": "See {IERC721-isApprovedForAll}."
      },
      "name()": {
        "details": "See {IERC721Metadata-name}."
      },
      "owner()": {
        "details": "Returns the address of the current owner."
      },
      "ownerOf(uint256)": {
        "details": "See {IERC721-ownerOf}."
      },
      "renounceOwnership()": {
        "details": "Leaves the contract without owner. It will not be possible to call `onlyOwner` functions anymore. Can only be called by the current owner. NOTE: Renouncing ownership will leave the contract without an owner, thereby removing any functionality that is only available to the owner."
      },
      "safeTransferFrom(address,address,uint256)": {
        "details": "See {IERC721-safeTransferFrom}."
      },
      "safeTransferFrom(address,address,uint256,bytes)": {
        "details": "See {IERC721-safeTransferFrom}."
      },
      "setApprovalForAll(address,bool)": {
        "details": "See {IERC721-setApprovalForAll}."
      },
      "supportsInterface(bytes4)": {
        "details": "See {IERC165-supportsInterface}."
      },
      "symbol()": {
        "details": "See {IERC721Metadata-symbol}."
      },
      "tokenURI(uint256)": {
        "details": "See {IERC721Metadata-tokenURI}."
      },
      "transferFrom(address,address,uint256)": {
        "details": "See {IERC721-transferFrom}."
      },
      "transferOwnership(address)": {
        "details": "Transfers ownership of the contract to a new account (`newOwner`). Can only be called by the current owner."
      }
    },
    "version": 1
  },
  "userdoc": {
    "kind": "user",
    "methods": {},
    "version": 1
  }
}